:020000040800F2
:100000007808002091010008D91D00088D1600080D
:10001000D51D0008AD040008ED1D0008000000001B
:10002000000000000000000000000000E11D0008CA
:10003000B104000800000000DD1D0008E51D0008F7
:10004000AB010008AB010008AB010008AB010008E0
:10005000AB010008AB010008B5040008AB010008C3
:10006000AB010008AB010008AB010008AB010008C0
:10007000AB010008AB010008AB010008AB010008B0
:10008000AB010008AB010008AB010008AB010008A0
:10009000AB010008AB010008AB010008AB01000890
:1000A000AB010008AB010008AB010008AB01000880
:1000B000AB010008AB010008AB010008AB01000870
:1000C000AB010008AB010008AB010008AB01000860
:1000D000AB010008AB010008AB010008AB01000850
:1000E000AB010008AB010008AB01000800F002F80A
:1000F00000F03FF80AA090E8000C82448344AAF183
:100100000107DA4501D100F034F8AFF2090EBAE880
:100110000F0013F0010F18BFFB1A43F0010318473B
:10012000AC290000CC290000103A24BF78C878C15F
:10013000FAD8520724BF30C830C144BF04680C60ED
:10014000704700000023002400250026103A28BF35
:1001500078C1FBD8520728BF30C148BF0B60704739
:10016000642900F07D80002070471FB51FBD10B5C9
:1001700010BD00F065F91146FFF7F7FF01F03CFFF5
:1001800000F083F903B4FFF7F2FF03BC00F086F937
:100190000948804709480047FEE7FEE7FEE7FEE71B
:1001A000FEE7FEE7FEE7FEE7FEE7FEE70448054957
:1001B000054A064B70470000E91D0008ED000008E5
:1001C00078020020780800207804002078040020BD
:1001D0000FB41CB5074B06AA7B44694600900598EE
:1001E00000F00DF90020694600F01CF91CBC5DF818
:1001F00014FB0000490200002DE9F0410E460446C0
:10020000002020622046E168884730B3252805D0C9
:10021000D4E901219047206A401CF2E7E1682046BA
:1002200000278847050018D0A5F14100192802D8F9
:1002300020354FF400673246294620462760FFF7F5
:100240008FFF40B1012804D0F61D26F007060836BE
:10025000D8E7361DD6E72846DAE7206ABDE8F08100
:100260002DE9F0410646002410687529314616A58F
:1002700010D0AFF30080002802DA404213A507E057
:1002800031688A0701D512A502E0490704D511A5F6
:10029000012401E0AFF3008000210A2206F12407C7
:1002A00009E0B0FBF2FCB0FBF2F302FB1C003030C3
:1002B00078541846491C0028F3D123462A46304674
:1002C000BDE8F04100F03DB8000000002D00000046
:1002D0002B000000200000004FF0000200B5134684
:1002E00094469646203922BFA0E80C50A0E80C5056
:1002F000B1F12001BFF4F7AF090728BFA0E80C5007
:1003000048BF0CC05DF804EB890028BF40F8042BFF
:1003100008BF704748BF20F8022B11F0804F18BF6C
:1003200000F8012B704770477047704710B500F018
:100330007FF8006810BD10B5044600F079F804603D
:1003400010BD2DE9F0470D4699469246044600F14E
:1003500024080168880604D5E06921F010012160B5
:1003600000E00120A84201DD471B00E00027A16951
:100370007A1902EB0900081AA0612078C00602D49D
:100380002046AFF30080002608E0D4E901211AF8E6
:1003900006009047206A401C761C20624E45F4DB24
:1003A0002078C0060AD52046AFF3008006E0D4E9E5
:1003B000012130209047206A401C2062381EA7F19E
:1003C0000107F4DC07E0D4E9012118F805009047A3
:1003D000206A401C2062281EA5F10105F3DC20469E
:1003E000AFF300802078000602D50220BDE8F08738
:1003F0000120FBE701694A1C02610878704700B5DB
:100400008FB0CDE901310021059105497944CDE94D
:10041000031011466846FFF7EFFE0FB000BD000065
:10042000E5FFFFFF0A6802F8010B0A607047000051
:10043000004870471000002000487047100000205E
:100440007546FFF7F9FFAE4605006946534620F0B2
:100450000700854618B020B5FFF7A8FEBDE820408C
:100460004FF000064FF000074FF000084FF0000B70
:10047000AC46ACE8C009ACE8C009ACE8C009ACE8DF
:10048000C00921F007018D46704710B50446AFF34F
:1004900000802046BDE81040FFF774BE01491820D7
:1004A000ABBEFEE72600020070470000FEE700003A
:1004B00070470000012000F017B80000B0B50446F6
:1004C00000F02CF9054640F20000C2F2000000786E
:1004D000611C18BF044400BF00F020F9401BA0427B
:1004E000FAD3B0BD7047000040F21441C4F20101DC
:1004F0000A68024214BF08607047FFF7F3BF0000AC
:100500002DE9F04F82B00E68002E00F0038141F219
:100510000042C4F20102042340F2004E904208BFA0
:1005200003234FF6FF7CC4F2010E00930024012345
:10053000C1F2100C4FF0000A4FF0000949E000BF73
:10054000012704F00C030F229A402BEA020207FA5B
:1005500003F34FEA9A051A4346F82520D1F804B070
:1005600040F20C455FEACB22DEF8082054BF22EAB5
:10057000080242EA0802C4F20105CEF808202A68FF
:100580005FEA8B2354BF22EA080242EA08022A608B
:100590005FEA8B33DEF8042054BF22EA080242EA05
:1005A00008025FEACB33CEF80420DEF800204FF0DB
:1005B000010354BF22EA080242EA0802CEF80020F2
:1005C0000E680AF1010A36FA0AF204F1040400F096
:1005D000A18003FA0AF816EA080FF1D04E686645C2
:1005E00012DC122E56D8DFE806F0350B454955557A
:1005F00055555555555555555555554D510000BFF7
:10060000D1F80C9046E000BF4FF6FF72C1F2210214
:1006100096420FDC0022C1F2110296421AD000224B
:10062000C1F21202964215D00022C1F22102964276
:1006300010D02FE00022C1F2220296420AD00022FE
:10064000C1F23102964205D00022C1F23202964236
:1006500020D100BF8A684AB1012A14BFC0F81480B3
:10066000C0F810804FF0080914E000BF4FF00409F3
:1006700010E000BFCA6802F108090BE04FF0000962
:1006800008E000BFCA6802F1040903E0CA6802F189
:100690000C0900BF22460646BAF1080F24BF203AD3
:1006A000043637680F25954027EA050509FA02F256
:1006B0002A433260CA79D2067FF582AF41F218032D
:1006C000C4F202031A68AEF57E7642F001021A60A7
:1006D0001A6802F001020192019A2AF0030256F808
:1006E00002B040F60002C4F20102904210D040F67F
:1006F0000042C4F2010290423FF422AF41F20002F4
:10070000C4F20102009F904208BF022719E700BF10
:10071000002716E702B0BDE8F08F000040F2E400C9
:10072000C2F200000068704770B5B8B3044690F894
:100730003D0028B9002084F83C00204600F0ECFB86
:10074000242084F83D002068016821F00101016047
:10075000016841F400410160016821F40041016039
:1007600000F090FD48F28041C0F21E0140F60013F7
:10077000D4F804E088424FF00001C0F23D0348F293
:10078000A16C4FF0000238BF01219842C0F2010C69
:1007900038BF0122E64538BF0A460AB1012070BDC4
:1007A0004DF68361C4F21B31A0FB01122168950C48
:1007B0004B684FF4967623F03F0343EA9243754328
:1007C00044F6D3564B60C1F262060B6AA5FB06568F
:1007D000B50923F03F03E64538BF950C6A1C1A4360
:1007E0000A62CA6948F2A0664CF6FF73C0F20106BD
:1007F000B64522EA03020BD801384FEA4E03B0FB9C
:10080000F3F001306FF31F30042898BF04201EE07E
:10081000A368013863B119230EFB03F3B0FBF3F0B7
:1008200001306FF31F3078B100F5804008E000BF61
:100830000EEB4E03B0FBF3F001306FF31F3028B125
:1008400000F5004003E000BF012000E0012010435C
:10085000C8610868D4E9072320F0C000104318439A
:100860000860886848F2FF3204F10C0690434CCED1
:1008700018431043A5698860C86820F0FF00304322
:100880002843C860086840F001000860002020216B
:10089000206484F83D10206384F83E0070BD0000A1
:1008A0002DE9F04383B01E46174689460446FFF7FC
:1008B00035FF94F83D10202920D10546206800BF5F
:1008C0008169890716D5FFF729FF411B20681A297E
:1008D000F6D381698907F3D500202021206384F8AD
:1008E0003D1084F83E00216C41F02001216484F821
:1008F0003C0003E094F83C10012903D1022003B02E
:10090000BDE8F083012184F83C100168C90703D1D8
:10091000016841F001010160016840F2020821F420
:1009200000610160212184F83D10102184F83E10FF
:100930000021216467626685618DC0F2010821850E
:10094000A8F10211E162E16A0A9E11F5803F18BF29
:1009500001291DD1016841F48071016020464FF0EA
:10096000011100223346009500F0E2FF50B12068EB
:100970000068C00544BF4FF400702064012003B03C
:10098000BDE8F0832069B0F5804F07D1FE2015E067
:100990000829DFD0216B1229DCD0DFE7062000EA2E
:1009A000D9102168F030086108F10601204632466E
:1009B0002B4601F0A7F80028E0D1FF20216800EACB
:1009C000090008612046414632462B4601F09AF85C
:1009D0000028D3D1002002902068416902918069EB
:1009E0000290029806E000BF204631462A4600F0F9
:1009F0003FFF18BB208D68B3204631462A4601F0E0
:100A000039F9D8B9606A2168024612F8013B0B61D6
:100A10006262628D013A6285228D531E23854F6981
:100A20007F07E1D51B04DFD0437802300B616062A1
:100A3000608D01386085901E2085D5E7206C0428E4
:100A40009CD12068016841F400710160012003B06D
:100A5000BDE8F0832068016841F400710160202046
:100A600084F83D00002084F83E0084F83C0003B088
:100A7000BDE8F0832DE9F04F85B00446002099468B
:100A800016460F460490FFF749FE94F83D102029C2
:100A900027D10546206800BF816989071CD5FFF76B
:100AA0003DFE411B20681A29F6D381698907F3D5D9
:100AB00000202021206384F83D1084F83E00206C43
:100AC00004F13C0A40F020002064022000218AF852
:100AD000001005B0BDE8F08FA2461AF83C1F0129AE
:100AE00004D1022005B0BDE8F08F00BF01228AF8D2
:100AF00000200368DDE90F180E9ADB0703D10368B5
:100B000043F001030360036823F4006303602220C1
:100B100084F83D00402084F83E000020206462629A
:100B20006185608D394620850020CFF6FF70E06238
:100B3000204632464B46CDF80080019500F0A8FDD6
:100B400020B1012005B0BDE8F08F00BF208D022844
:100B500010D0012824D0002838D10020039020682C
:100B600041690391816903910399016841F400711E
:100B7000016037E02068016841F400610160EFF333
:100B8000108072B60020039020684169039181694A
:100B900003910399016821F48061016062B621E04C
:100BA0002068016821F480610160EFF3108072B663
:100BB00000200390206841690391816903910399A2
:100BC000016841F40071016062B60BE020680168C1
:100BD00041F48061016000210391416903918069C2
:100BE00003900398208D002800F0CA80042740F26B
:100BF00008094BF2895BC0F20107C2F20009C1F299
:100C0000F84B232617E000BF204641462A4600F055
:100C1000E9FF002895D12068616A00690870606A60
:100C2000218D01306062481E2085618D013961850A
:100C3000010400F0A58080B2032865D8022800F0E6
:100C40007F800128E0D020463946002243460095A7
:100C500000F06EFE00287FF474AF2068016821F474
:100C600080610160EFF3108072B62068616A0069EC
:100C70000870606A218D0130013960622185618DC3
:100C800001396185D9F80010C908A1FB0B12110ABE
:100C9000714304910499013904910499002900F0E9
:100CA0007B8021684A6952071DD404990139049157
:100CB0000499002970D021684A69520713D4049915
:100CC000013904910499002966D021684A695207C4
:100CD00009D4049901390491049900295CD0216850
:100CE0004A695207D6D50A6842F400720A60096957
:100CF0000170606A218D01306062481E2085608D20
:100D00000138608562B686E7204641462A4600F0F3
:100D100069FF00287FF415AF2068616A00690870D8
:100D2000606A2268411C208D616201382085638DD4
:100D3000013B638553695B077FF57AAF10696DE707
:100D40002046394600224346009500F0F1FD002878
:100D50007FF4F7AEEFF3108072B62068616A026824
:100D600042F40072026000690870606A218D0130EF
:100D70006062481E2085608D0138608562B64AE752
:100D8000202084F83D00002084F83E0000218AF8ED
:100D9000001005B0BDE8F08F00202021206384F80A
:100DA0003D1084F83E00206C40F02000206462B6C4
:100DB000012000218AF8001005B0BDE8F08F000086
:100DC0002DE9F04383B0994616460F460446FFF7D7
:100DD000A5FC94F83D10202920D10546206800BFCD
:100DE0008169890716D5FFF799FC411B20681A29EC
:100DF000F6D381698907F3D500202021206384F888
:100E00003D1084F83E00216C41F02001216484F8FB
:100E10003C0003E094F83C10012903D1022003B008
:100E2000BDE8F083012284F83C200368DDE90B185B
:100E30000A9ADB0703D1036843F0010303600368E8
:100E400023F400630360212084F83D00402084F8EF
:100E50003E000020206462626185608D39462085F5
:100E60000020CFF6FF70E062204632464B46CDF8B8
:100E70000080019500F098FC20B1012003B0BDE88E
:100E8000F08300BF208D98B9204641462A4600F0E5
:100E9000EFFC88B3206C0428EFD12068016841F48E
:100EA00000710160012003B0BDE8F0830004EBD0C5
:100EB000204641462A4600F0DDFE0028EAD1616A5C
:100EC0002268084610F8013B1361238D6062581EAA
:100ED0002085678D013F678557697F07E6D5070441
:100EE000E4D048781061881C6062981E2085618D6E
:100EF00001396185DAE700BF2068016841F40071BB
:100F00000160202084F83D00002084F83E0084F831
:100F10003C0003B0BDE8F08310B586B045F2004157
:100F20000068C4F2000100228842049202D006B098
:100F300010BD00BF41F21804C4F20204206840F062
:100F400008002060206800F0080001900198C0208F
:100F50000290122003900320059001F5384002A969
:100F6000FFF7CEFA606840F400106060606800F43B
:100F700000100190019806B010BD000040F2000082
:100F800040F2E401C2F20000C2F2000100780A68F7
:100F9000104408607047000080B542F20000C4F2BF
:100FA0000200016841F010010160032000F07AF8AE
:100FB0000F2000F005F800F027F8002080BD0000A9
:100FC00070B540F20006C2F2000640F20801327825
:100FD000C2F200014FF47A730968B3FBF2F20446DF
:100FE000B1FBF2F1084600F03BFB0F2C4FF001057E
:100FF00008D838B94FF0FF3021460022002500F014
:1010000025F87460284670BD82B041F21800C4F221
:1010100002000168022241F001010160016801F053
:10102000010101910199416841F08051416040689E
:1010300000F08050009000980420C4F20100016884
:1010400062F31A61016002B07047000010B54EF6FD
:101050000C5CCEF2000CDCF80030C3F3022E8EF0F4
:101060000704042C28BF0424BEF103034FF0FF3E05
:101070000EFA04F438BF0023A14399400EFA03F39B
:101080009A43114300F00F0200F160430901043A52
:1010900003F564436244002848BF02F10C03197051
:1010A00010BD00004EF60C51CEF200010A684FF65A
:1010B000FF031A4060F30A2242F0806040F0FD70A6
:1010C000086070472DE9F04381B0002800F085806A
:1010D00042F20008C4F202080446D8F800000D46A7
:1010E00000F0070088420CD2D8F8000020F007007A
:1010F0002843C8F80000D8F8000000F00700A84214
:101100006BD1206841F204098107C4F2020917D5A6
:10111000410705D5D9F8001041F4E061C9F8001085
:10112000010705D5D9F8001041F46051C9F8001045
:10113000D9F80010A26821F0F0011143C9F800109D
:10114000C00741D1D8F8000000F00700A8420CD930
:10115000D8F8000020F007002843C8F80000D8F8AD
:10116000000000F00700A84237D12068410707D5EA
:10117000D9F80010E26821F4E0611143C9F80010C9
:10118000000708D5D9F80000216920F4605040EA32
:10119000C100C9F80000D9F8002002F00C000828AE
:1011A00041F20020C0F27A0050D142F6B823C2F3D7
:1011B0008341C0F60003595CD2033BD440F60010D3
:1011C000C0F23D00484341E0606802280AD001288F
:1011D0002AD159F8041C890308D4012001B0BDE8C4
:1011E000F08300BF59F8041C8901F6D5D9F8001026
:1011F00021F003010843C9F80000FFF78FFA064603
:1012000041F28837D9F80000616800F00C00B0EBBB
:10121000810F97D0FFF782FA801BB842F2D90320E2
:1012200001B0BDE8F08300BF59F8041C8907D4D58C
:10123000DCE700BFD9F8002042F6B623C2F34042F3
:10124000C0F600039A5C4843B0FBF2F0D9F80010F6
:1012500042F69E22C1F30311C0F60002515C40F237
:10126000080220FA01F140F20400C2F20000006816
:10127000C2F200021160FFF7A3FE002001B0BDE83A
:10128000F083000040F2080041F20401C2F20000C5
:10129000C4F202010068096842F6AE22C1F30221DD
:1012A000C0F60002515CC840704700002DE9F041D3
:1012B00082B0002868D00446007841F20006C007DA
:1012C000C4F2020625D0706800F00C0004281BD080
:1012D000706800F00C00082802D17068C00313D4B5
:1012E0006068002800F06881B0F5A02F00F07C81D4
:1012F000B0F5803F00F07C81306820F480303060B1
:10130000306820F4802076E13068800301D5606881
:10131000D0B32078800718D5706810F00C0F07D074
:10132000706800F00C0008286ED17068C0036BD4A0
:101330003068800702D52069012825D130686169AD
:1013400020F0F80040EAC1003060207800071FD488
:101350002078400732D4E56995B1706800F00C0040
:10136000082840F08F80012D0ED07068216A00F4AB
:1013700080328A4208D1616A00F47010884203D139
:10138000002002B0BDE8F081012002B0BDE8F0818C
:10139000A069002862D00020C4F242200121C0F8D8
:1013A0008014FFF7BBF90546706A800700F18C8056
:1013B000FFF7B4F9401B0228F6D92AE1F06910F0D2
:1013C000805808D1F06940F08050F061F06900F079
:1013D00080500090009847F20007C4F20007386878
:1013E000C00529D4386840F480703860FFF796F95A
:1013F000054600BF3868C0051ED4FFF78FF9401BB3
:101400006428F7D905E100BF2069002840F20000F8
:10141000C4F2422000F0828001210160FFF77EF9D2
:10142000054600BF306880073FF588AFFFF776F9C3
:10143000401B0228F6D9ECE0E068002800F080802C
:10144000052800F09780012800F09880306A20F08D
:1014500001003062306A20F0040092E00020C4F203
:1014600042200021C0F88014FFF758F9054600BF5C
:10147000706A80077FF56CAFFFF750F9401B0228B8
:10148000F6D9C6E00027C4F2422700203866FFF7ED
:1014900045F9022D05460BD13068800140F1BE8030
:1014A000FFF73CF9401B02284FF00300F4D968E72E
:1014B000306880017FF564AFFFF730F9401B0228E8
:1014C0004FF00300F4D95CE740F20800C2F20000DC
:1014D000006844F6D351C1F26201A0FB0101480A41
:1014E000019000BF00BF0198411E002801913FF408
:1014F0002FAF00BF0198411E002801913FF428AF93
:1015000000BF0198411E002801913FF421AF00BFA8
:101510000198411E00280191E4D119E700210160E2
:10152000FFF7FCF8054600BF306880077FF50DAF78
:10153000FFF7F4F8401B02284FF00300F4D920E72E
:10154000306A20F001003062306A20F0040030621E
:10155000FFF7E4F8054641F2883700BF306A80079C
:1015600020D5FFF7DBF8401BB8424FF00300F5D958
:1015700007E700BF306A40F004003062306A40F094
:1015800001003062FFF7CAF8054641F2883700BF14
:10159000306A800706D4FFF7C1F8401BB842F7D97C
:1015A00037E000BFB8F1000F7FF4D5AEF06920F04E
:1015B0008050F061CFE600BF306820F480303060AA
:1015C000306820F480203060FFF7A8F8054600BF9F
:1015D000306880037FF59DAEFFF7A0F8401B6428BC
:1015E0004FF00300F4D9CCE6306840F4802030603E
:1015F000306840F480303060FFF790F8054600BF57
:10160000306880033FF585AEFFF788F8401B6428FB
:10161000F6D9032002B0BDE8F08100BF206AB0F522
:10162000803F05D17168A26821F4003111437160D7
:101630007168626A21F474111143084370600120DB
:101640003866FFF76BF80446306880013FF598AEC6
:10165000FFF764F8001B02284FF00300F4D990E66E
:10166000411E0020B0EB116F1CBF012070474EF2ED
:101670001002CEF2000251604EF62351CEF200016C
:10168000F0230B700721906011607047FEE70000A7
:101690002DE9F04782B0044600680E460168DDF887
:1016A00028A041F4806101600168DDF82C9041F4CC
:1016B00080711D461746016020464FF0011100223F
:1016C0005346CDF8009000F033F958B12068006817
:1016D000C00544BF4FF400702064032002B0BDE891
:1016E000F08700BF40F202082068C0F2010806F04F
:1016F000FE0606612046414652464B4600F002FA7D
:1017000020B1012002B0BDE8F08700BF00200190A9
:1017100020684A46416901918069514601900198CB
:10172000204600F0A7FA98B92068012D08D0390AA0
:101730000161204651464A4600F09CFA40B92068B3
:10174000F9B20161204651464A4600F093FA58B179
:10175000206C0428D5D12068016841F40071016033
:10176000012002B0BDE8F0872068002201685346DE
:1017700041F48071016020464FF00111CDF80090D6
:1017800000F0D6F80028A1D1206846F001010161DF
:101790002046414652464B4600F0B4F9002818BF97
:1017A000012002B0BDE8F0872DE9F04383B0044684
:1017B00000680D4601680A9F0B9E41F480719946AE
:1017C0009046016020464FF0011100223B460096F2
:1017D00000F0AEF850B120680068C00544BF4FF477
:1017E00000702064032003B0BDE8F083206805F09A
:1017F000FE0101610221C0F2010120463A46334652
:1018000000F080F920B1012003B0BDE8F08300BFF3
:101810000020029020683246416902918069394671
:1018200002900298204600F025FA58B1206C042856
:10183000E9D12068016841F400710160012003B022
:10184000BDE8F0832068B9F1010F0AD04FEA1821F2
:10185000016120463946324600F00CFA0028E5D1F5
:1018600020685FFA88F10161002003B0BDE8F083D1
:1018700070B50368044653F8140F400711D40E46A0
:10188000481C29D086BB00BF1868400527D4FEF746
:1018900045FF236853F8140F400739D518684007EF
:1018A000F2D5002070BD00BF18684007F9D4186851
:1018B000400514D418684007F3D4186840050ED4C6
:1018C00018684007EDD41868400508D41868400728
:1018D0004FF0000048BF70BD18684005E4D56FF4B4
:1018E00080601860042014E0154603E053F8140FDC
:1018F0004007D6D418684005F1D4FEF70FFF401B0F
:101900002368B042F2D958694007EFD4202000E0A4
:10191000202000212022216384F83D2084F83E10FD
:10192000226C10432064012084F83C1070BD00003C
:101930002DE9F041054600681E46144601F47F0279
:1019400001338FB242D0DDF81880B2F5803F40F00D
:10195000878040693840C01BB0FA80F04009A0423F
:1019600040F0C8804EB924E040693840C01BB0FA4E
:1019700080F04009A04240F0BD80FEF7CFFEA0EB12
:1019800008012868B142EFD941693940C91BB1FA51
:1019900081F14909A142E7D19BE000BF406938408D
:1019A000C01BB0FA80F04009A0424FF0000040F0A8
:1019B000A680FEF7B3FE286841693940C91BB1FA19
:1019C00081F14909A142E9D183E000BFB2F5803F2E
:1019D00024D100BF41693940C91BB1FA81F14909DD
:1019E000A14240F0878041693940C91BB1FA81F1B9
:1019F0004909A14240F07E8041693940C91BB1FAD2
:101A000081F14909A14275D141693940C91BB1FA37
:101A100081F14909A142DDD06CE000BF8169394004
:101A2000C91BB1FA81F14909A14263D181693940E9
:101A3000C91BB1FA81F14909A1425BD181693940E1
:101A4000C91BB1FA81F14909A14253D181693940D9
:101A5000C91BB1FA81F14909A142DFD04AE000BFB8
:101A600080693840C01BB0FA80F04009A04241D1E3
:101A700046B923E080693840C01BB0FA80F04009C5
:101A8000A0423BD1FEF74AFEA0EB08012868B14214
:101A9000F0D981693940C91BB1FA81F14909A142E4
:101AA000E8D116E080693840C01BB0FA80F04009E8
:101AB000A0424FF0000018BFBDE8F081FEF72EFEF7
:101AC000286881693940C91BB1FA81F14909A142ED
:101AD000E8D100202021286385F83D1085F83E00DC
:101AE000296C41F02001296485F83C000120BDE803
:101AF000F08100BF0020BDE8F08100BF0020BDE8FC
:101B0000F0810000F0B581B0044600681D464369CD
:101B10008FB203EA0701B94202D1002001B0F0BD43
:101B200041691646013201F4806125D0002940D177
:101B3000CEB100BFFEF7F2FD411B2068B14203D9D0
:101B400041693940B9424BD141693940B942E4D089
:101B500041694905EED52CE041693940B942DCD0F4
:101B60004169490525D4FEF7D9FD2068416939400E
:101B7000B942F1D0202024E0D9B941693940B942B5
:101B8000CBD04169490514D441693940B942C4D028
:101B9000416949050DD441693940B942BDD0416917
:101BA000490506D441693940B942B6D04169490571
:101BB000E3D5016841F4007101606FF48061416117
:101BC000042000212022216384F83D2084F83E1067
:101BD000226C1043206484F83C10012001B0F0BD59
:101BE0002020EEE770B504460068154650F8143F13
:101BF0005A063DD40E4629B926E000BF50F8141FFE
:101C0000490635D40168C90621D4FEF787FD411B7A
:101C10002068B142F2D941694906EFD40020202161
:101C2000206384F83D1084F83E00206C40F02000D2
:101C300018E000BFFEF772FD206850F8141F490637
:101C4000ECD50168490613D40168C906F2D56FF0D6
:101C50001001016000202021206384F83D1084F8E9
:101C60003E00206C2064002084F83C00012070BD00
:101C7000002070BD70B50368044653F8140F0006C9
:101C800011D40E46481C29D086BB00BF18684005F9
:101C900027D4FEF743FD236853F8140F000639D507
:101CA00018680006F2D5002070BD00BF1868000655
:101CB000F9D41868400514D418680006F3D41868DD
:101CC00040050ED418680006EDD41868400508D405
:101CD000186800064FF0000048BF70BD1868400546
:101CE000E4D56FF480601860042014E0154603E02A
:101CF00053F8140F0006D6D418684005F1D4FEF747
:101D00000DFD401B2368B042F2D958690006EFD49C
:101D1000202000E0202000212022216384F83D20A3
:101D200084F83E10226C10432064012084F83C109B
:101D300070BD00002DE9F04184B001260DF10F00C7
:101D4000CDE9000640F27000C2F2000000F120046C
:101D50004FF47A752046D021752201230295FEF7B3
:101D600089FE9DF80F00682830D14FF000080DF172
:101D70000E072046D0216B2201238DF80E80CDE97D
:101D800000760295FFF71CF807208DF80E0020461C
:101D9000D02119220123CDE900760295FFF710F832
:101DA0002046D0211C2201238DF80E80CDE900763B
:101DB0000295FFF705F82046D0211B2201238DF85C
:101DC0000E80CDE900760295FEF7FAFF04B0BDE87B
:101DD000F0810000FEE70000FEE700007047000011
:101DE00070470000FFF7CAB870470000FEE7000028
:101DF0002DE9F04184B048F68C0040F29004C0F622
:101E00000C00C2F2000402904FF0640802AA2046BF
:101E10004E210423CDF80080FEF742FD42F62D1638
:101E20004627C0F60D1603AD20464E212A46042350
:101E30000396CDF80080FEF733FD013FF4D104B0E6
:101E4000BDE8F08170B582B03220FEF737FB40F27A
:101E5000900443F63C06C2F20004C0F60C0664256A
:101E600001AA20464E21042301960095FEF718FD95
:101E70000520FEF723FB01AA20464E2104230196EC
:101E80000095FEF70DFD0120FEF718FB01AA204684
:101E90004E21042301960095FEF702FD0A20FEF76D
:101EA0000DFB42F62C00C0F60C00019001AA204662
:101EB0004E2104230095FEF7F3FC0A20FEF7FEFAFC
:101EC00042F62C00C8F68C00019001AA20464E2153
:101ED00004230095FEF7E4FC0120FEF7EFFA40F63C
:101EE0000C00C8F68C00019001AA20464E21042364
:101EF0000095FEF7D5FC0120FEF7E0FA40F60C0055
:101F0000C1F61C00019001AA20464E210423009531
:101F1000FEF7C6FC0120FEF7D1FA0120FEF7CEFA4B
:101F200040F60C00C6F66C00019001AA20464E2136
:101F300004230095FEF7B4FC0120FEF7BFFA40F63B
:101F40000C00CCF6CC00019001AA20464E210423BF
:101F50000095FEF7A5FC02B070BD000080B582B010
:101F600000F0F001000101F10C0208318DF80510BC
:101F700000F10C0108308DF8070040F290008DF858
:101F800004208DF806104FF0640CC2F2000001AA84
:101F90004E210423CDF800C0FEF782FC02B080BDC4
:101FA000F0B583B0017821B340F29004461E642757
:101FB000C2F2000402AD00BF21F00F00090100F1E0
:101FC0000D0209308DF8090001F10D008DF80A00AD
:101FD00001F109008DF808208DF80B0020464E21F4
:101FE0002A4604230097FEF75BFCB17801360029EE
:101FF000E2D103B0F0BD0000EEB0FEF7CDFF00254A
:102000000120CDE90955CDE90755049008904FF41A
:10201000E01004AE4FF4803102240D903046CDE93B
:102020000515CDE90B41FFF741F928B1EFF3108019
:1020300072B600BFFEE700BF0F2069A931C14FF49F
:102040008060CDE96C0569A80221FFF73BF828B153
:10205000EFF3108072B600BFFEE700BF41F2180038
:10206000C4F20200016840F2700941F020010160F1
:102070000168C2F2000901F020010491049901688D
:10208000002341F00401016001684FF4804201F037
:10209000040104910499016841F00801016000689D
:1020A00045F2004100F0080004900498C4F20001D9
:1020B000484640F8201F48F2A061C0F20101C0E983
:1020C0000113C0E90332C0E90533C0E90733FEF765
:1020D0002BFB28B1EFF3108072B600BFFEE700BF04
:1020E000FFF7B0FEFFF726FE71A0FFF759FF4FF490
:1020F000FA70FEF7E3F9C020FFF730FF42F6C8217F
:1021000068ADC0F6000128461C22FEF761F828469B
:10211000FFF746FF4FF47A70FEF7D0F9FFF768FE3D
:1021200009F12000039000BF062001900398D02100
:102130003B2201234FF47A7700960297FEF79AFC30
:10214000BDF81000BDF81240BDF81450C0BA00F040
:102150005DFAC9F80400E0BA00F058FAC9F80C00BA
:10216000E8BA00F053FAC9F8140030464FF4C871C9
:10217000FEF7B2F84FF0000A26E000BFD9F81C00C5
:1021800001210130C9F81C00C9F80010B0F1FF3F6F
:10219000DCBF0020C9F81C008020FFF7DFFE47A04D
:1021A000FFF7FEFED9F81C2069AC42F6C821204694
:1021B000C0F60001FEF70CF82046FFF7F1FE0AF129
:1021C000040ABAF5C87FAFD0D9F8040048F200017C
:1021D000CCF2AC3100F08CF805460120FEF76EF928
:1021E000D9F80C000021CCF2AD3100F081F807469F
:1021F0000120FEF763F90120FEF760F9D9F8081015
:10220000D9F810B0D9F81880284600F0D3FB05465D
:102210003846594600F0CEFB014600F077FA0746F3
:102220002846294600F072FA394600F061F840F27B
:10223000E801C2F2000151F80A100546084641467D
:1022400000F0B8FB014600F061FA294600F050F8B2
:1022500000F038F806EB0A0151F8041C46F80A00B1
:1022600000F046F80021C4F2FA4100F0D9F8054622
:102270000120FEF723F940F20C00C2F200000768CB
:102280002846394600F0B2F8D9F80040002808BFC7
:10229000002C3FF473AF2846394600F0A0F8002820
:1022A00002BF012C0020C9F80000D9F81C006DE71E
:1022B000696E697469616C697A656400535445504C
:1022C000533D000070B5054600F0ECFA044620F0DE
:1022D0000040C0F1FF40C00F08D025F00040C0F121
:1022E000FF40C00F04BF0120FEF725F8204670BD57
:1022F00090EA010F48BF81F0004100F16283421A69
:102300003CBF801A89184FEAD052A2EBD1534FF04C
:102310007F4C1CEA410F18BF9CEA026F00F03B8023
:102320004FF0004C4CEA00204CEA012121FA03FC5A
:1023300010EB0C0C1ED202F1FF325FEA1C2040EBC6
:10234000C25038BF70471CF07F0F4FEA400C18BFD7
:10235000BCF17F4F38BF7047C3F12003994008BFDD
:1023600020F00100BCF17F4F38BF7047A0F1C040A2
:1023700000F093BA4FEA3C00000A40EBC25028BF7D
:102380001CF0FF0F4FEA400CE6D018BFBCF17F4FA6
:1023900038BF7047EAE79CEA026F05D010EA5C0F8D
:1023A00008BF00F00040704710B500F030FA00BFE1
:1023B00064FBBE3E10B500F0F5F80CBF0120002014
:1023C00010BD10B500F0EEF814BF0120002010BDC4
:1023D00010B500F033F98CBF0120002010BD10B5FE
:1023E00000F02CF92CBF0120002010BD10B500F02A
:1023F00059F994BF0120002010BD10B500F052F92A
:1024000034BF0120002010BD401058BFC0F1404033
:10241000491058BFC1F140418142EFF3008070473D
:102420004FF47F0C1CEAD0121EBF1CEAD11392EAB3
:102430000C0F93EA0C0F00F0858090EA010F48BF63
:1024400042F4807240F4000C41F400002CF07F4113
:1024500020F07F4000B5A2EB030281420FF2081C7E
:10246000ACEB504E9EF800E0C0F100004FEA4E0E7B
:1024700000FB0EFC38BF49004FEA2C1C0CFB0EF38E
:102480004FEACE1E0EEB635E4FEA112C0EFB0CFCE6
:102490004FEAC1214FEA1C5300FB031102F5FA0277
:1024A0004FEA112C0EFB0CFC4FEA01314FEADC4CD9
:1024B00000FB0C1142EB2242C14228BF09184CEB31
:1024C00003335DF804EB10EB410143EBC250B2F56E
:1024D0007C0F38BF704729D512F0F00F1CBF00F1F8
:1024E000C04000F000407047008182838485868769
:1024F00088898B8C8D8E8F919293959697999A9CC3
:102500009D9FA0A2A3A5A7A8AAACAEB0B2B3B5B731
:10251000B9BCBEC0C2C5C7C9CCCED1D4D7D9DCDF07
:10252000E2E6E9ECF0F3F7FAFE0000004FEA400CB7
:102530000CF1807CBCF17E4F28BF7047B0F1C040E9
:1025400000F0ABB90CEAD11390EA010F48BF42F496
:102550008072624538BF634507D213F47F0F16D0EF
:1025600080EA010000F00040704710B500F04FF91C
:10257000097EFC3E00F005B880EA010000F0004052
:10258000704780EA010000F0004000F086B912F4C4
:102590007F0F04BF0248704780EA010000F07DB958
:1025A0000000C07F50EA010C00F113801CF5000F01
:1025B00058BFBCF5000F01D48842704707D710F50B
:1025C000000F58BF11F5000F15D48842704789429B
:1025D00070471CF5000F04D5BCF5000FF7D58142FC
:1025E00070474FF0807C1CEB400F38BF1CEB410F55
:1025F00001D28142704710B500F009F992244900D8
:102600004FF000504FF08051FFF7FEBE10F0004138
:1026100048BF4042B0FA80F310FA03F2C3F19D03C1
:102620000BD051EAC35101EB1220530638BF70475B
:1026300000F1010008BF20F00100704750EA010CD2
:1026400000F113801CF5000F58BFBCF5000F01D43A
:102650008842704707D710F5000F58BF11F5000FDB
:1026600015D488427047894270471CF5000F04D585
:10267000BCF5000FF7D5814270474FF0807C1CEB12
:10268000400F38BF1CEB410F01D28142704710B59B
:1026900000F0BDF8922449004FF080504FF00051F7
:1026A000FFF7B2BE50EA010C00F113801CF5000FD9
:1026B00058BFBCF5000F01D48842704707D710F50A
:1026C000000F58BF11F5000F15D48842704789429A
:1026D00070471CF5000F04D5BCF5000FF7D58142FB
:1026E00070474FF0807C1CEB400F38BF1CEB410F54
:1026F00001D28142704710B500F089F89224490058
:102700004FF000504FF08051FFF77EBE4FF47F0C2A
:102710001CEAD0121EBF1CEAD11392EA0C0F93EAF6
:102720000C0F00F0478090EA010F48BF42F480721E
:102730004FF0004C4CEA00204CEA012102EB03026E
:10274000A0FB0113A2F50002002918BF43F001030A
:102750005B0028BF4FEA330342EB22425FEA132CAF
:102760004CEBC2502EBFBCEB436FB2F57C0F7047F1
:102770004FEA036CBCF1004F08BF20F00100B2F536
:102780007C0F38BF70470BD582F0FF0212F5803FF7
:10279000C8BF704700F1C040D8BF00F0004070478C
:1027A00000F5000C5FEA4C0C48BF7047B0F1C04028
:1027B00000F073B80CEAD11390EA010F48BF42F45D
:1027C0008072624538BF634504D280EA010000F0A0
:1027D0000040704710B500F01AF800BF8900013EB4
:1027E00000F007B800F009B85FEA410C5FEA1C6C22
:1027F00008D080EA010000F050B85FEA400C5FEAC0
:102800001C6CF6D14FF00040A0F5800070470EF12F
:10281000020E2EF0030E5EF8044B244204D44FEA5D
:102820004102B2F17F4F11D84FEA4003B3F17F4F1D
:102830000CD80ED14FEAD07C0CEB4C0C0CF1020CF6
:10284000B2F17F4F08BF4CEBD17C04E04FF0080C95
:1028500001E04FEAD17C0CEB4C0324FA03F404F0C2
:102860000704B4F1040C06D20EEB840CBDE8104052
:102870004CF0010C6047DFE80CF0070802024FF053
:102880000040A0F5800010BD0846420018BFD2F1FC
:10289000807288BF00F0004010BDFF2141EAD05097
:1028A000C00570474FEAD051002988BFD1F1FF021F
:1028B00040F275804FEA002040F0004070B501F111
:1028C0007D01490838BF40080EA2430ED25C040CBB
:1028D00002FB02F304FB03F3C3F14043A3FB0254E6
:1028E000ED0D45EA442202FB02F3A0FB03546D42C6
:1028F000C4F1404438BF641EA2FB05350023E2FB4F
:102900000453EA0B42EA4342A0FB023212F14004B4
:10291000E409A2F1210303F07F031F2B32D904EB5A
:10292000C15070BDFEFAF7F3F0ECE9E6E4E1DEDC5D
:10293000D9D7D4D2D0CECCCAC8C6C4C2C1BFBDBC00
:10294000BAB9B7B6B4B3B2B0AFAEACABAAA9A8A788
:10295000A6A4A3A2A1A09F9E9E9D9C9B9A99989796
:10296000979695949393929190908F8E8E8D8C8C58
:102970008B8A8A89898887878686858484838382EF
:102980008281818004FB04F6B6EB004603D5E64263
:1029900048BF641CC3E7A64258BF641CBFE711F0E0
:1029A000FF0F02D100F00040704710B5FFF72FFF76
:1029B0007FDBFFBE90EA010F48BF81F000413FF589
:1029C0009EAC421A04D882F00042A0EB02001144EF
:1029D0004FEAD052A2EBD1534FF07F4C1CEA410F8B
:1029E00018BF9CEA026F4AD04FF0004C4CEA00201E
:1029F0004CEA012121FA03FCB0EB0C0C0FD412F0CD
:102A0000FE0F36D05FEA4C001DD5001240EBC250DD
:102A100038BF70471CF03F0F18BF70470BE05FEAEC
:102A20001C20A2F1010240EBC25038BF70471CF0DD
:102A30007F0F18BF7047C3F12003994014BF401E99
:102A400020F0010070474FEA1223800808BF70474A
:102A5000B0FA80FCA2EB0C02CCF1280C60FA0CF06E
:102A600093EA122F04BF00EBC25070474FEAC370C5
:102A70007047130A5FEADC1008BF7047F6E79CEA6C
:102A8000026F04D010EA5C0F08BF0020704710B539
:102A9000FFF7BDFE40DFF63E81F0004070470000CA
:102AA00000000000000001020304060708090000FE
:102AB00000000102030401020203040506070809DD
:102AC0000A0B0C0D0E0F101025640000F02A0008F0
:102AD000000000201000000028010008002B000862
:102AE00010000020680800004401000800000000F9
:102AF00001000000100000000024F4000000C040AD
:04000005080000ED02
:00000001FF
